{
  "contractName": "Dappify",
  "abi": [
    {
      "anonymous": false,
      "inputs": [
        {
          "indexed": false,
          "internalType": "uint256",
          "name": "id",
          "type": "uint256"
        },
        {
          "indexed": false,
          "internalType": "string",
          "name": "hash",
          "type": "string"
        },
        {
          "indexed": false,
          "internalType": "string",
          "name": "description",
          "type": "string"
        },
        {
          "indexed": false,
          "internalType": "uint256",
          "name": "tipAmount",
          "type": "uint256"
        },
        {
          "indexed": false,
          "internalType": "address payable",
          "name": "author",
          "type": "address"
        }
      ],
      "name": "PostCreated",
      "type": "event"
    },
    {
      "anonymous": false,
      "inputs": [
        {
          "indexed": false,
          "internalType": "uint256",
          "name": "id",
          "type": "uint256"
        },
        {
          "indexed": false,
          "internalType": "string",
          "name": "hash",
          "type": "string"
        },
        {
          "indexed": false,
          "internalType": "string",
          "name": "description",
          "type": "string"
        },
        {
          "indexed": false,
          "internalType": "uint256",
          "name": "tipAmount",
          "type": "uint256"
        },
        {
          "indexed": false,
          "internalType": "address payable",
          "name": "author",
          "type": "address"
        }
      ],
      "name": "PostTipped",
      "type": "event"
    },
    {
      "constant": true,
      "inputs": [],
      "name": "name",
      "outputs": [
        {
          "internalType": "string",
          "name": "",
          "type": "string"
        }
      ],
      "payable": false,
      "stateMutability": "view",
      "type": "function"
    },
    {
      "constant": true,
      "inputs": [],
      "name": "postCount",
      "outputs": [
        {
          "internalType": "uint256",
          "name": "",
          "type": "uint256"
        }
      ],
      "payable": false,
      "stateMutability": "view",
      "type": "function"
    },
    {
      "constant": true,
      "inputs": [
        {
          "internalType": "uint256",
          "name": "",
          "type": "uint256"
        }
      ],
      "name": "posts",
      "outputs": [
        {
          "internalType": "uint256",
          "name": "id",
          "type": "uint256"
        },
        {
          "internalType": "string",
          "name": "hash",
          "type": "string"
        },
        {
          "internalType": "string",
          "name": "description",
          "type": "string"
        },
        {
          "internalType": "uint256",
          "name": "tipAmount",
          "type": "uint256"
        },
        {
          "internalType": "address payable",
          "name": "author",
          "type": "address"
        }
      ],
      "payable": false,
      "stateMutability": "view",
      "type": "function"
    },
    {
      "constant": false,
      "inputs": [
        {
          "internalType": "string",
          "name": "_postHash",
          "type": "string"
        },
        {
          "internalType": "string",
          "name": "_description",
          "type": "string"
        }
      ],
      "name": "uploadPost",
      "outputs": [],
      "payable": false,
      "stateMutability": "nonpayable",
      "type": "function"
    },
    {
      "constant": false,
      "inputs": [
        {
          "internalType": "uint256",
          "name": "_id",
          "type": "uint256"
        }
      ],
      "name": "tipPostOwner",
      "outputs": [],
      "payable": true,
      "stateMutability": "payable",
      "type": "function"
    }
  ],
  "bytecode": "0x60806040526040518060400160405280600781526020017f44617070696679000000000000000000000000000000000000000000000000008152506000908051906020019061004f929190610067565b50600060015534801561006157600080fd5b5061010c565b828054600181600116156101000203166002900490600052602060002090601f016020900481019282601f106100a857805160ff19168380011785556100d6565b828001600101855582156100d6579182015b828111156100d55782518255916020019190600101906100ba565b5b5090506100e391906100e7565b5090565b61010991905b808211156101055760008160009055506001016100ed565b5090565b90565b610e458061011b6000396000f3fe60806040526004361061004a5760003560e01c806306fdde031461004f5780630b1e7f83146100df5780630cb1c7ee1461024057806317906c2e1461039f578063d6313c06146103ca575b600080fd5b34801561005b57600080fd5b506100646103f8565b6040518080602001828103825283818151815260200191508051906020019080838360005b838110156100a4578082015181840152602081019050610089565b50505050905090810190601f1680156100d15780820380516001836020036101000a031916815260200191505b509250505060405180910390f35b3480156100eb57600080fd5b506101186004803603602081101561010257600080fd5b8101908080359060200190929190505050610496565b6040518086815260200180602001806020018581526020018473ffffffffffffffffffffffffffffffffffffffff1673ffffffffffffffffffffffffffffffffffffffff168152602001838103835287818151815260200191508051906020019080838360005b8381101561019a57808201518184015260208101905061017f565b50505050905090810190601f1680156101c75780820380516001836020036101000a031916815260200191505b50838103825286818151815260200191508051906020019080838360005b838110156102005780820151818401526020810190506101e5565b50505050905090810190601f16801561022d5780820380516001836020036101000a031916815260200191505b5097505050505050505060405180910390f35b34801561024c57600080fd5b5061039d6004803603604081101561026357600080fd5b810190808035906020019064010000000081111561028057600080fd5b82018360208201111561029257600080fd5b803590602001918460018302840111640100000000831117156102b457600080fd5b91908080601f016020809104026020016040519081016040528093929190818152602001838380828437600081840152601f19601f8201169050808301925050505050505091929192908035906020019064010000000081111561031757600080fd5b82018360208201111561032957600080fd5b8035906020019184600183028401116401000000008311171561034b57600080fd5b91908080601f016020809104026020016040519081016040528093929190818152602001838380828437600081840152601f19601f82011690508083019250505050505050919291929050505061061c565b005b3480156103ab57600080fd5b506103b46108c5565b6040518082815260200191505060405180910390f35b6103f6600480360360208110156103e057600080fd5b81019080803590602001909291905050506108cb565b005b60008054600181600116156101000203166002900480601f01602080910402602001604051908101604052809291908181526020018280546001816001161561010002031660029004801561048e5780601f106104635761010080835404028352916020019161048e565b820191906000526020600020905b81548152906001019060200180831161047157829003601f168201915b505050505081565b6002602052806000526040600020600091509050806000015490806001018054600181600116156101000203166002900480601f0160208091040260200160405190810160405280929190818152602001828054600181600116156101000203166002900480156105485780601f1061051d57610100808354040283529160200191610548565b820191906000526020600020905b81548152906001019060200180831161052b57829003601f168201915b505050505090806002018054600181600116156101000203166002900480601f0160208091040260200160405190810160405280929190818152602001828054600181600116156101000203166002900480156105e65780601f106105bb576101008083540402835291602001916105e6565b820191906000526020600020905b8154815290600101906020018083116105c957829003601f168201915b5050505050908060030154908060040160009054906101000a900473ffffffffffffffffffffffffffffffffffffffff16905085565b600082511161062a57600080fd5b600081511161063857600080fd5b600073ffffffffffffffffffffffffffffffffffffffff163373ffffffffffffffffffffffffffffffffffffffff16141561067257600080fd5b6001600081548092919060010191905055506040518060a001604052806001548152602001838152602001828152602001600081526020013373ffffffffffffffffffffffffffffffffffffffff168152506002600060015481526020019081526020016000206000820151816000015560208201518160010190805190602001906106ff929190610d26565b50604082015181600201908051906020019061071c929190610d26565b506060820151816003015560808201518160040160006101000a81548173ffffffffffffffffffffffffffffffffffffffff021916908373ffffffffffffffffffffffffffffffffffffffff1602179055509050507f0e2769bd597cd7048e25b64a846e1254d4cb84b13c4aba4ad4a891baf7a399c660015483836000336040518086815260200180602001806020018581526020018473ffffffffffffffffffffffffffffffffffffffff1673ffffffffffffffffffffffffffffffffffffffff168152602001838103835287818151815260200191508051906020019080838360005b8381101561081c578082015181840152602081019050610801565b50505050905090810190601f1680156108495780820380516001836020036101000a031916815260200191505b50838103825286818151815260200191508051906020019080838360005b83811015610882578082015181840152602081019050610867565b50505050905090810190601f1680156108af5780820380516001836020036101000a031916815260200191505b5097505050505050505060405180910390a15050565b60015481565b6000811180156108dd57506001548111155b6108e657600080fd5b6108ee610da6565b600260008381526020019081526020016000206040518060a001604052908160008201548152602001600182018054600181600116156101000203166002900480601f0160208091040260200160405190810160405280929190818152602001828054600181600116156101000203166002900480156109af5780601f10610984576101008083540402835291602001916109af565b820191906000526020600020905b81548152906001019060200180831161099257829003601f168201915b50505050508152602001600282018054600181600116156101000203166002900480601f016020809104026020016040519081016040528092919081815260200182805460018160011615610100020316600290048015610a515780601f10610a2657610100808354040283529160200191610a51565b820191906000526020600020905b815481529060010190602001808311610a3457829003601f168201915b50505050508152602001600382015481526020016004820160009054906101000a900473ffffffffffffffffffffffffffffffffffffffff1673ffffffffffffffffffffffffffffffffffffffff1673ffffffffffffffffffffffffffffffffffffffff168152505090506000816080015190508073ffffffffffffffffffffffffffffffffffffffff166108fc349081150290604051600060405180830381858888f19350505050158015610b0b573d6000803e3d6000fd5b50348260600151018260600181815250508160026000858152602001908152602001600020600082015181600001556020820151816001019080519060200190610b56929190610d26565b506040820151816002019080519060200190610b73929190610d26565b506060820151816003015560808201518160040160006101000a81548173ffffffffffffffffffffffffffffffffffffffff021916908373ffffffffffffffffffffffffffffffffffffffff1602179055509050507f8cdd31fc6bd9c789638fdbd3ed5c788b27fa5d287f300e92f3c436ba03527db383836020015184604001518560600151856040518086815260200180602001806020018581526020018473ffffffffffffffffffffffffffffffffffffffff1673ffffffffffffffffffffffffffffffffffffffff168152602001838103835287818151815260200191508051906020019080838360005b83811015610c7c578082015181840152602081019050610c61565b50505050905090810190601f168015610ca95780820380516001836020036101000a031916815260200191505b50838103825286818151815260200191508051906020019080838360005b83811015610ce2578082015181840152602081019050610cc7565b50505050905090810190601f168015610d0f5780820380516001836020036101000a031916815260200191505b5097505050505050505060405180910390a1505050565b828054600181600116156101000203166002900490600052602060002090601f016020900481019282601f10610d6757805160ff1916838001178555610d95565b82800160010185558215610d95579182015b82811115610d94578251825591602001919060010190610d79565b5b509050610da29190610deb565b5090565b6040518060a0016040528060008152602001606081526020016060815260200160008152602001600073ffffffffffffffffffffffffffffffffffffffff1681525090565b610e0d91905b80821115610e09576000816000905550600101610df1565b5090565b9056fea265627a7a72315820070d108458225968e1c0d54748401760dc08f208444ca482eeba5bce911a185b64736f6c63430005110032",
  "source": "pragma solidity ^0.5.0;\n\ncontract Dappify {\n  string public name = 'Dappify';\n\n  // Store Songs\n  uint public postCount = 0;\n  mapping(uint => Post) public posts;\n\n  struct Post {\n    uint id;\n    string hash;\n    string description;\n    uint tipAmount;\n    address payable author;\n  }\n\n  event PostCreated(\n    uint id,\n    string hash,\n    string description,\n    uint tipAmount,\n    address payable author\n  );\n\n  event PostTipped(\n    uint id,\n    string hash,\n    string description,\n    uint tipAmount,\n    address payable author\n  );\n\n  // Create Posts\n  function uploadPost(string memory _postHash, string memory _description) public {\n    // Make sure hash exists\n    require(bytes(_postHash).length > 0);\n\n    // Make sure it's not empty\n    require(bytes(_description).length > 0);\n\n    // Make sure uploader address exists\n    require(msg.sender != address(0x0));\n\n    // Increment post id\n    postCount ++;\n\n    // Add post to contract\n    posts[postCount] = Post(postCount, _postHash, _description, 0, msg.sender);\n\n    // Trigger an event\n    emit PostCreated(postCount, _postHash, _description, 0, msg.sender);\n  }\n\n  // Tip Posts\n  function tipPostOwner(uint _id) public payable {\n    // Make sure the id is valid\n    require(_id > 0 && _id <= postCount);\n    // Fetch the post\n    Post memory _post = posts[_id];\n\n    // Fetch the author\n    address payable _author = _post.author;\n\n    // Send eth\n    _author.transfer(msg.value);\n\n    // Increment the tip amount\n    _post.tipAmount = _post.tipAmount + msg.value;\n\n    // Update the post\n    posts[_id] = _post;\n\n    // Trigger event\n    emit PostTipped(_id, _post.hash, _post.description, _post.tipAmount, _author);\n  }\n}",
  "sourcePath": "/home/wale/data/dappifyV2/src/contracts/Dappify.sol",
  "compiler": {
    "name": "solc",
    "version": "0.5.17+commit.d19bba13.Emscripten.clang"
  },
  "schemaVersion": "3.4.8",
  "updatedAt": "2022-07-21T11:05:09.296Z",
  "networkType": "ethereum",
  "devdoc": {
    "methods": {}
  },
  "userdoc": {
    "methods": {}
  }
}